{
  "_format": "hh-sol-artifact-1",
  "contractName": "EMS",
  "sourceName": "contracts/EMS.sol",
  "abi": [
    {
      "inputs": [],
      "stateMutability": "nonpayable",
      "type": "constructor"
    },
    {
      "inputs": [
        {
          "internalType": "address",
          "name": "owner",
          "type": "address"
        }
      ],
      "name": "OwnableInvalidOwner",
      "type": "error"
    },
    {
      "inputs": [
        {
          "internalType": "address",
          "name": "account",
          "type": "address"
        }
      ],
      "name": "OwnableUnauthorizedAccount",
      "type": "error"
    },
    {
      "anonymous": false,
      "inputs": [
        {
          "indexed": true,
          "internalType": "address",
          "name": "auditor",
          "type": "address"
        },
        {
          "indexed": true,
          "internalType": "uint256",
          "name": "_caseNumber",
          "type": "uint256"
        }
      ],
      "name": "CaseAssigned",
      "type": "event"
    },
    {
      "anonymous": false,
      "inputs": [
        {
          "indexed": true,
          "internalType": "address",
          "name": "previousOwner",
          "type": "address"
        },
        {
          "indexed": true,
          "internalType": "address",
          "name": "newOwner",
          "type": "address"
        }
      ],
      "name": "OwnershipTransferred",
      "type": "event"
    },
    {
      "anonymous": false,
      "inputs": [
        {
          "indexed": true,
          "internalType": "address",
          "name": "auditor",
          "type": "address"
        }
      ],
      "name": "UserRegistered",
      "type": "event"
    },
    {
      "inputs": [
        {
          "internalType": "address",
          "name": "_userAddress",
          "type": "address"
        }
      ],
      "name": "activateUser",
      "outputs": [],
      "stateMutability": "nonpayable",
      "type": "function"
    },
    {
      "inputs": [
        {
          "internalType": "uint256",
          "name": "_caseNumber",
          "type": "uint256"
        },
        {
          "internalType": "string",
          "name": "_typeOfEvidence",
          "type": "string"
        },
        {
          "internalType": "string",
          "name": "_evidenceData",
          "type": "string"
        }
      ],
      "name": "addEvidenceToCase",
      "outputs": [],
      "stateMutability": "nonpayable",
      "type": "function"
    },
    {
      "inputs": [
        {
          "internalType": "address",
          "name": "_userAddress",
          "type": "address"
        },
        {
          "internalType": "uint256",
          "name": "_caseNumber",
          "type": "uint256"
        }
      ],
      "name": "assignCaseToUser",
      "outputs": [],
      "stateMutability": "nonpayable",
      "type": "function"
    },
    {
      "inputs": [
        {
          "internalType": "uint256",
          "name": "",
          "type": "uint256"
        }
      ],
      "name": "cases",
      "outputs": [
        {
          "internalType": "uint256",
          "name": "caseNumber",
          "type": "uint256"
        },
        {
          "internalType": "string",
          "name": "caseDescription",
          "type": "string"
        },
        {
          "internalType": "uint256",
          "name": "totalCaseEvidences",
          "type": "uint256"
        },
        {
          "internalType": "uint256",
          "name": "timestamp",
          "type": "uint256"
        },
        {
          "internalType": "enum EMS.CaseStatus",
          "name": "caseStatus",
          "type": "uint8"
        }
      ],
      "stateMutability": "view",
      "type": "function"
    },
    {
      "inputs": [
        {
          "internalType": "address",
          "name": "_userAddress",
          "type": "address"
        }
      ],
      "name": "checkUserRole",
      "outputs": [
        {
          "internalType": "enum EMS.UserRole",
          "name": "",
          "type": "uint8"
        }
      ],
      "stateMutability": "view",
      "type": "function"
    },
    {
      "inputs": [
        {
          "internalType": "uint256",
          "name": "_caseNumber",
          "type": "uint256"
        }
      ],
      "name": "closeCase",
      "outputs": [],
      "stateMutability": "nonpayable",
      "type": "function"
    },
    {
      "inputs": [
        {
          "internalType": "address",
          "name": "_userAddress",
          "type": "address"
        }
      ],
      "name": "deactivateUser",
      "outputs": [],
      "stateMutability": "nonpayable",
      "type": "function"
    },
    {
      "inputs": [
        {
          "internalType": "uint256",
          "name": "",
          "type": "uint256"
        }
      ],
      "name": "evidences",
      "outputs": [
        {
          "internalType": "string",
          "name": "typeOfEvidence",
          "type": "string"
        },
        {
          "internalType": "string",
          "name": "evidenceData",
          "type": "string"
        }
      ],
      "stateMutability": "view",
      "type": "function"
    },
    {
      "inputs": [
        {
          "internalType": "uint256",
          "name": "_caseNumber",
          "type": "uint256"
        }
      ],
      "name": "getCaseDetails",
      "outputs": [
        {
          "internalType": "uint256",
          "name": "",
          "type": "uint256"
        },
        {
          "internalType": "string",
          "name": "",
          "type": "string"
        },
        {
          "internalType": "uint256",
          "name": "",
          "type": "uint256"
        },
        {
          "internalType": "uint256",
          "name": "",
          "type": "uint256"
        },
        {
          "internalType": "enum EMS.CaseStatus",
          "name": "",
          "type": "uint8"
        }
      ],
      "stateMutability": "view",
      "type": "function"
    },
    {
      "inputs": [
        {
          "internalType": "uint256",
          "name": "_caseNumber",
          "type": "uint256"
        }
      ],
      "name": "getCaseEvidences",
      "outputs": [
        {
          "internalType": "string[]",
          "name": "",
          "type": "string[]"
        },
        {
          "internalType": "string[]",
          "name": "",
          "type": "string[]"
        }
      ],
      "stateMutability": "view",
      "type": "function"
    },
    {
      "inputs": [
        {
          "internalType": "address",
          "name": "_userAddress",
          "type": "address"
        }
      ],
      "name": "getUserCases",
      "outputs": [
        {
          "internalType": "uint256[]",
          "name": "",
          "type": "uint256[]"
        }
      ],
      "stateMutability": "view",
      "type": "function"
    },
    {
      "inputs": [
        {
          "internalType": "uint256",
          "name": "_caseNumber",
          "type": "uint256"
        }
      ],
      "name": "openCase",
      "outputs": [],
      "stateMutability": "nonpayable",
      "type": "function"
    },
    {
      "inputs": [],
      "name": "owner",
      "outputs": [
        {
          "internalType": "address",
          "name": "",
          "type": "address"
        }
      ],
      "stateMutability": "view",
      "type": "function"
    },
    {
      "inputs": [
        {
          "internalType": "address",
          "name": "_userAddress",
          "type": "address"
        },
        {
          "internalType": "enum EMS.UserRole",
          "name": "_userRole",
          "type": "uint8"
        }
      ],
      "name": "registerUser",
      "outputs": [],
      "stateMutability": "nonpayable",
      "type": "function"
    },
    {
      "inputs": [],
      "name": "renounceOwnership",
      "outputs": [],
      "stateMutability": "nonpayable",
      "type": "function"
    },
    {
      "inputs": [],
      "name": "totalAuditors",
      "outputs": [
        {
          "internalType": "uint256",
          "name": "",
          "type": "uint256"
        }
      ],
      "stateMutability": "view",
      "type": "function"
    },
    {
      "inputs": [],
      "name": "totalGuests",
      "outputs": [
        {
          "internalType": "uint256",
          "name": "",
          "type": "uint256"
        }
      ],
      "stateMutability": "view",
      "type": "function"
    },
    {
      "inputs": [],
      "name": "totalRegisteredUsers",
      "outputs": [
        {
          "internalType": "uint256",
          "name": "",
          "type": "uint256"
        }
      ],
      "stateMutability": "view",
      "type": "function"
    },
    {
      "inputs": [
        {
          "internalType": "address",
          "name": "newOwner",
          "type": "address"
        }
      ],
      "name": "transferOwnership",
      "outputs": [],
      "stateMutability": "nonpayable",
      "type": "function"
    },
    {
      "inputs": [
        {
          "internalType": "uint256",
          "name": "_caseNumber",
          "type": "uint256"
        },
        {
          "internalType": "string",
          "name": "_caseDescription",
          "type": "string"
        }
      ],
      "name": "updateCase",
      "outputs": [],
      "stateMutability": "nonpayable",
      "type": "function"
    },
    {
      "inputs": [
        {
          "internalType": "address",
          "name": "",
          "type": "address"
        }
      ],
      "name": "users",
      "outputs": [
        {
          "internalType": "address",
          "name": "userAddress",
          "type": "address"
        },
        {
          "internalType": "enum EMS.UserRole",
          "name": "userRole",
          "type": "uint8"
        },
        {
          "internalType": "enum EMS.UserStatus",
          "name": "userStatus",
          "type": "uint8"
        },
        {
          "internalType": "bool",
          "name": "isRegistered",
          "type": "bool"
        },
        {
          "internalType": "uint256",
          "name": "totalAssignedCases",
          "type": "uint256"
        },
        {
          "internalType": "uint256",
          "name": "timestamp",
          "type": "uint256"
        }
      ],
      "stateMutability": "view",
      "type": "function"
    }
  ],
  "bytecode": "0x608060405233600160006101000a81548173ffffffffffffffffffffffffffffffffffffffff021916908373ffffffffffffffffffffffffffffffffffffffff1602179055506000600255600060035560006004556000600655600060075534801561006a57600080fd5b50600160009054906101000a900473ffffffffffffffffffffffffffffffffffffffff16600073ffffffffffffffffffffffffffffffffffffffff168173ffffffffffffffffffffffffffffffffffffffff16036101005760006040517f1e4fbdf70000000000000000000000000000000000000000000000000000000081526004016100f7919061021a565b60405180910390fd5b61010f8161011560201b60201c565b50610235565b60008060009054906101000a900473ffffffffffffffffffffffffffffffffffffffff169050816000806101000a81548173ffffffffffffffffffffffffffffffffffffffff021916908373ffffffffffffffffffffffffffffffffffffffff1602179055508173ffffffffffffffffffffffffffffffffffffffff168173ffffffffffffffffffffffffffffffffffffffff167f8be0079c531659141344cd1fd0a4f28419497f9722a3daafe3b4186f6b6457e060405160405180910390a35050565b600073ffffffffffffffffffffffffffffffffffffffff82169050919050565b6000610204826101d9565b9050919050565b610214816101f9565b82525050565b600060208201905061022f600083018461020b565b92915050565b6139ea806102446000396000f3fe608060405234801561001057600080fd5b50600436106101375760003560e01c8063715018a6116100b8578063b4acfe1c1161007c578063b4acfe1c1461032d578063c3a9063514610349578063c8ba108e1461037d578063e1075ed314610399578063f09790dd146103c9578063f2fde38b146103fd57610137565b8063715018a6146102965780637164b359146102a05780638da5cb5b146102be5780639e9fa097146102dc578063a87430ba146102f857610137565b80633c7afca5116100ff5780633c7afca5146101dd5780633f755b4b146101fb5780633ffad912146102195780634ac26921146102355780636680f8a11461026557610137565b80630e7ce8181461013c57806319ebebcf146101585780631a47767b146101745780632073b17c146101905780632e4546cd146101ac575b600080fd5b61015660048036038101906101519190612935565b610419565b005b610172600480360381019061016d9190612abb565b610679565b005b61018e60048036038101906101899190612b46565b6109e3565b005b6101aa60048036038101906101a59190612b73565b610b62565b005b6101c660048036038101906101c19190612b73565b610d6c565b6040516101d4929190612c1f565b60405180910390f35b6101e5610ea0565b6040516101f29190612c65565b60405180910390f35b610203610ea6565b6040516102109190612c65565b60405180910390f35b610233600480360381019061022e9190612b73565b610eac565b005b61024f600480360381019061024a9190612b46565b6110b6565b60405161025c9190612cf7565b60405180910390f35b61027f600480360381019061027a9190612b73565b611220565b60405161028d929190612e1e565b60405180910390f35b61029e6117e1565b005b6102a86117f5565b6040516102b59190612c65565b60405180910390f35b6102c66117fb565b6040516102d39190612e64565b60405180910390f35b6102f660048036038101906102f19190612ea4565b611824565b005b610312600480360381019061030d9190612b46565b611c15565b60405161032496959493929190612f47565b60405180910390f35b61034760048036038101906103429190612b46565b611c98565b005b610363600480360381019061035e9190612b73565b611e17565b604051610374959493929190612ff0565b60405180910390f35b6103976004803603810190610392919061304a565b61222f565b005b6103b360048036038101906103ae9190612b46565b6124df565b6040516103c09190613164565b60405180910390f35b6103e360048036038101906103de9190612b73565b61257f565b6040516103f4959493929190612ff0565b60405180910390f35b61041760048036038101906104129190612b46565b61264a565b005b6104216126d0565b8160011515600560008373ffffffffffffffffffffffffffffffffffffffff1673ffffffffffffffffffffffffffffffffffffffff16815260200190815260200160002060000160169054906101000a900460ff161515146104b8576040517f08c379a00000000000000000000000000000000000000000000000000000000081526004016104af906131d2565b60405180910390fd5b826001808111156104cc576104cb612c80565b5b600560008373ffffffffffffffffffffffffffffffffffffffff1673ffffffffffffffffffffffffffffffffffffffff16815260200190815260200160002060000160159054906101000a900460ff16600181111561052e5761052d612c80565b5b1461056e576040517f08c379a00000000000000000000000000000000000000000000000000000000081526004016105659061323e565b60405180910390fd5b600560008573ffffffffffffffffffffffffffffffffffffffff1673ffffffffffffffffffffffffffffffffffffffff168152602001908152602001600020600101839080600181540180825580915050600190039060005260206000200160009091909190915055600560008573ffffffffffffffffffffffffffffffffffffffff1673ffffffffffffffffffffffffffffffffffffffff168152602001908152602001600020600201600081548092919061062a9061328d565b9190505550828473ffffffffffffffffffffffffffffffffffffffff167f1a2b30a250b2e152ac2f021922b4e079d0bc2824daba2b76f9e8c67bbfeef2df60405160405180910390a350505050565b33836000600181111561068f5761068e612c80565b5b600560008473ffffffffffffffffffffffffffffffffffffffff1673ffffffffffffffffffffffffffffffffffffffff16815260200190815260200160002060000160149054906101000a900460ff1660018111156106f1576106f0612c80565b5b14610731576040517f08c379a000000000000000000000000000000000000000000000000000000000815260040161072890613321565b60405180910390fd5b6000805b600560008573ffffffffffffffffffffffffffffffffffffffff1673ffffffffffffffffffffffffffffffffffffffff168152602001908152602001600020600101805490508110156107fd5782600560008673ffffffffffffffffffffffffffffffffffffffff1673ffffffffffffffffffffffffffffffffffffffff16815260200190815260200160002060010182815481106107d7576107d6613341565b5b9060005260206000200154036107f057600191506107fd565b8080600101915050610735565b508061083e576040517f08c379a0000000000000000000000000000000000000000000000000000000008152600401610835906133e2565b60405180910390fd5b6000600860008881526020019081526020016000206000015403610897576040517f08c379a000000000000000000000000000000000000000000000000000000000815260040161088e9061344e565b60405180910390fd5b600160028111156108ab576108aa612c80565b5b6008600088815260200190815260200160002060040160009054906101000a900460ff1660028111156108e1576108e0612c80565b5b14610921576040517f08c379a0000000000000000000000000000000000000000000000000000000008152600401610918906134e0565b60405180910390fd5b6000600860008881526020019081526020016000209050806005016040518060400160405280888152602001878152509080600181540180825580915050600190039060005260206000209060020201600090919091909150600082015181600001908161098f919061370c565b5060208201518160010190816109a5919061370c565b5050508060020160008154809291906109bd9061328d565b9190505550600760008154809291906109d59061328d565b919050555050505050505050565b6109eb6126d0565b80600073ffffffffffffffffffffffffffffffffffffffff168173ffffffffffffffffffffffffffffffffffffffff1603610a5b576040517f08c379a0000000000000000000000000000000000000000000000000000000008152600401610a529061382a565b60405180910390fd5b8160011515600560008373ffffffffffffffffffffffffffffffffffffffff1673ffffffffffffffffffffffffffffffffffffffff16815260200190815260200160002060000160169054906101000a900460ff16151514610af2576040517f08c379a0000000000000000000000000000000000000000000000000000000008152600401610ae9906131d2565b60405180910390fd5b6000600560008573ffffffffffffffffffffffffffffffffffffffff1673ffffffffffffffffffffffffffffffffffffffff16815260200190815260200160002060000160156101000a81548160ff02191690836001811115610b5857610b57612c80565b5b0217905550505050565b338160006001811115610b7857610b77612c80565b5b600560008473ffffffffffffffffffffffffffffffffffffffff1673ffffffffffffffffffffffffffffffffffffffff16815260200190815260200160002060000160149054906101000a900460ff166001811115610bda57610bd9612c80565b5b14610c1a576040517f08c379a0000000000000000000000000000000000000000000000000000000008152600401610c1190613321565b60405180910390fd5b6000805b600560008573ffffffffffffffffffffffffffffffffffffffff1673ffffffffffffffffffffffffffffffffffffffff16815260200190815260200160002060010180549050811015610ce65782600560008673ffffffffffffffffffffffffffffffffffffffff1673ffffffffffffffffffffffffffffffffffffffff1681526020019081526020016000206001018281548110610cc057610cbf613341565b5b906000526020600020015403610cd95760019150610ce6565b8080600101915050610c1e565b5080610d27576040517f08c379a0000000000000000000000000000000000000000000000000000000008152600401610d1e906133e2565b60405180910390fd5b60016008600086815260200190815260200160002060040160006101000a81548160ff02191690836002811115610d6157610d60612c80565b5b021790555050505050565b6009602052806000526040600020600091509050806000018054610d8f9061352f565b80601f0160208091040260200160405190810160405280929190818152602001828054610dbb9061352f565b8015610e085780601f10610ddd57610100808354040283529160200191610e08565b820191906000526020600020905b815481529060010190602001808311610deb57829003601f168201915b505050505090806001018054610e1d9061352f565b80601f0160208091040260200160405190810160405280929190818152602001828054610e499061352f565b8015610e965780601f10610e6b57610100808354040283529160200191610e96565b820191906000526020600020905b815481529060010190602001808311610e7957829003601f168201915b5050505050905082565b60045481565b60035481565b338160006001811115610ec257610ec1612c80565b5b600560008473ffffffffffffffffffffffffffffffffffffffff1673ffffffffffffffffffffffffffffffffffffffff16815260200190815260200160002060000160149054906101000a900460ff166001811115610f2457610f23612c80565b5b14610f64576040517f08c379a0000000000000000000000000000000000000000000000000000000008152600401610f5b90613321565b60405180910390fd5b6000805b600560008573ffffffffffffffffffffffffffffffffffffffff1673ffffffffffffffffffffffffffffffffffffffff168152602001908152602001600020600101805490508110156110305782600560008673ffffffffffffffffffffffffffffffffffffffff1673ffffffffffffffffffffffffffffffffffffffff168152602001908152602001600020600101828154811061100a57611009613341565b5b9060005260206000200154036110235760019150611030565b8080600101915050610f68565b5080611071576040517f08c379a0000000000000000000000000000000000000000000000000000000008152600401611068906133e2565b60405180910390fd5b60026008600086815260200190815260200160002060040160006101000a81548160ff021916908360028111156110ab576110aa612c80565b5b021790555050505050565b60006110c06126d0565b81600073ffffffffffffffffffffffffffffffffffffffff168173ffffffffffffffffffffffffffffffffffffffff1603611130576040517f08c379a00000000000000000000000000000000000000000000000000000000081526004016111279061382a565b60405180910390fd5b8260011515600560008373ffffffffffffffffffffffffffffffffffffffff1673ffffffffffffffffffffffffffffffffffffffff16815260200190815260200160002060000160169054906101000a900460ff161515146111c7576040517f08c379a00000000000000000000000000000000000000000000000000000000081526004016111be906131d2565b60405180910390fd5b600560008573ffffffffffffffffffffffffffffffffffffffff1673ffffffffffffffffffffffffffffffffffffffff16815260200190815260200160002060000160149054906101000a900460ff1692505050919050565b60608033836000600181111561123957611238612c80565b5b600560008473ffffffffffffffffffffffffffffffffffffffff1673ffffffffffffffffffffffffffffffffffffffff16815260200190815260200160002060000160149054906101000a900460ff16600181111561129b5761129a612c80565b5b146112db576040517f08c379a00000000000000000000000000000000000000000000000000000000081526004016112d290613321565b60405180910390fd5b6000805b600560008573ffffffffffffffffffffffffffffffffffffffff1673ffffffffffffffffffffffffffffffffffffffff168152602001908152602001600020600101805490508110156113a75782600560008673ffffffffffffffffffffffffffffffffffffffff1673ffffffffffffffffffffffffffffffffffffffff168152602001908152602001600020600101828154811061138157611380613341565b5b90600052602060002001540361139a57600191506113a7565b80806001019150506112df565b50806113e8576040517f08c379a00000000000000000000000000000000000000000000000000000000081526004016113df906133e2565b60405180910390fd5b33866000805b600560008573ffffffffffffffffffffffffffffffffffffffff1673ffffffffffffffffffffffffffffffffffffffff168152602001908152602001600020600101805490508110156114b65782600560008673ffffffffffffffffffffffffffffffffffffffff1673ffffffffffffffffffffffffffffffffffffffff16815260200190815260200160002060010182815481106114905761148f613341565b5b9060005260206000200154036114a957600191506114b6565b80806001019150506113ee565b50806114f7576040517f08c379a00000000000000000000000000000000000000000000000000000000081526004016114ee906138bc565b60405180910390fd5b6000600860008b81526020019081526020016000206000015403611550576040517f08c379a00000000000000000000000000000000000000000000000000000000081526004016115479061344e565b60405180910390fd5b6000600860008b8152602001908152602001600020905060008160050180549050905060008167ffffffffffffffff81111561158f5761158e612990565b5b6040519080825280602002602001820160405280156115c257816020015b60608152602001906001900390816115ad5790505b50905060008267ffffffffffffffff8111156115e1576115e0612990565b5b60405190808252806020026020018201604052801561161457816020015b60608152602001906001900390816115ff5790505b50905060005b838110156117cb5784600501818154811061163857611637613341565b5b906000526020600020906002020160000180546116549061352f565b80601f01602080910402602001604051908101604052809291908181526020018280546116809061352f565b80156116cd5780601f106116a2576101008083540402835291602001916116cd565b820191906000526020600020905b8154815290600101906020018083116116b057829003601f168201915b50505050508382815181106116e5576116e4613341565b5b602002602001018190525084600501818154811061170657611705613341565b5b906000526020600020906002020160010180546117229061352f565b80601f016020809104026020016040519081016040528092919081815260200182805461174e9061352f565b801561179b5780601f106117705761010080835404028352916020019161179b565b820191906000526020600020905b81548152906001019060200180831161177e57829003601f168201915b50505050508282815181106117b3576117b2613341565b5b6020026020010181905250808060010191505061161a565b5081819b509b5050505050505050505050915091565b6117e96126d0565b6117f36000612757565b565b60025481565b60008060009054906101000a900473ffffffffffffffffffffffffffffffffffffffff16905090565b61182c6126d0565b81600073ffffffffffffffffffffffffffffffffffffffff168173ffffffffffffffffffffffffffffffffffffffff160361189c576040517f08c379a00000000000000000000000000000000000000000000000000000000081526004016118939061382a565b60405180910390fd5b60001515600560008573ffffffffffffffffffffffffffffffffffffffff1673ffffffffffffffffffffffffffffffffffffffff16815260200190815260200160002060000160169054906101000a900460ff16151514611932576040517f08c379a000000000000000000000000000000000000000000000000000000000815260040161192990613928565b60405180910390fd5b6040518060e001604052808473ffffffffffffffffffffffffffffffffffffffff16815260200183600181111561196c5761196b612c80565b5b81526020016000600181111561198557611984612c80565b5b8152602001600115158152602001600067ffffffffffffffff8111156119ae576119ad612990565b5b6040519080825280602002602001820160405280156119dc5781602001602082028036833780820191505090505b5081526020016000815260200142815250600560008573ffffffffffffffffffffffffffffffffffffffff1673ffffffffffffffffffffffffffffffffffffffff16815260200190815260200160002060008201518160000160006101000a81548173ffffffffffffffffffffffffffffffffffffffff021916908373ffffffffffffffffffffffffffffffffffffffff16021790555060208201518160000160146101000a81548160ff02191690836001811115611a9e57611a9d612c80565b5b021790555060408201518160000160156101000a81548160ff02191690836001811115611ace57611acd612c80565b5b021790555060608201518160000160166101000a81548160ff0219169083151502179055506080820151816001019080519060200190611b0f929190612823565b5060a0820151816002015560c0820151816003015590505060006001811115611b3b57611b3a612c80565b5b826001811115611b4e57611b4d612c80565b5b03611b705760026000815480929190611b669061328d565b9190505550611bb5565b600180811115611b8357611b82612c80565b5b826001811115611b9657611b95612c80565b5b03611bb45760036000815480929190611bae9061328d565b91905055505b5b60046000815480929190611bc89061328d565b91905055508273ffffffffffffffffffffffffffffffffffffffff167f54db7a5cb4735e1aac1f53db512d3390390bb6637bd30ad4bf9fc98667d9b9b960405160405180910390a2505050565b60056020528060005260406000206000915090508060000160009054906101000a900473ffffffffffffffffffffffffffffffffffffffff16908060000160149054906101000a900460ff16908060000160159054906101000a900460ff16908060000160169054906101000a900460ff16908060020154908060030154905086565b611ca06126d0565b80600073ffffffffffffffffffffffffffffffffffffffff168173ffffffffffffffffffffffffffffffffffffffff1603611d10576040517f08c379a0000000000000000000000000000000000000000000000000000000008152600401611d079061382a565b60405180910390fd5b8160011515600560008373ffffffffffffffffffffffffffffffffffffffff1673ffffffffffffffffffffffffffffffffffffffff16815260200190815260200160002060000160169054906101000a900460ff16151514611da7576040517f08c379a0000000000000000000000000000000000000000000000000000000008152600401611d9e906131d2565b60405180910390fd5b6001600560008573ffffffffffffffffffffffffffffffffffffffff1673ffffffffffffffffffffffffffffffffffffffff16815260200190815260200160002060000160156101000a81548160ff02191690836001811115611e0d57611e0c612c80565b5b0217905550505050565b600060606000806000338660006001811115611e3657611e35612c80565b5b600560008473ffffffffffffffffffffffffffffffffffffffff1673ffffffffffffffffffffffffffffffffffffffff16815260200190815260200160002060000160149054906101000a900460ff166001811115611e9857611e97612c80565b5b14611ed8576040517f08c379a0000000000000000000000000000000000000000000000000000000008152600401611ecf90613321565b60405180910390fd5b6000805b600560008573ffffffffffffffffffffffffffffffffffffffff1673ffffffffffffffffffffffffffffffffffffffff16815260200190815260200160002060010180549050811015611fa45782600560008673ffffffffffffffffffffffffffffffffffffffff1673ffffffffffffffffffffffffffffffffffffffff1681526020019081526020016000206001018281548110611f7e57611f7d613341565b5b906000526020600020015403611f975760019150611fa4565b8080600101915050611edc565b5080611fe5576040517f08c379a0000000000000000000000000000000000000000000000000000000008152600401611fdc906133e2565b60405180910390fd5b33896000805b600560008573ffffffffffffffffffffffffffffffffffffffff1673ffffffffffffffffffffffffffffffffffffffff168152602001908152602001600020600101805490508110156120b35782600560008673ffffffffffffffffffffffffffffffffffffffff1673ffffffffffffffffffffffffffffffffffffffff168152602001908152602001600020600101828154811061208d5761208c613341565b5b9060005260206000200154036120a657600191506120b3565b8080600101915050611feb565b50806120f4576040517f08c379a00000000000000000000000000000000000000000000000000000000081526004016120eb906138bc565b60405180910390fd5b6000600860008e8152602001908152602001600020600001540361214d576040517f08c379a00000000000000000000000000000000000000000000000000000000081526004016121449061344e565b60405180910390fd5b6000600860008e81526020019081526020016000209050806000015481600101826002015483600301548460040160009054906101000a900460ff168380546121959061352f565b80601f01602080910402602001604051908101604052809291908181526020018280546121c19061352f565b801561220e5780601f106121e35761010080835404028352916020019161220e565b820191906000526020600020905b8154815290600101906020018083116121f157829003601f168201915b505050505093509b509b509b509b509b505050505050505091939590929450565b33826000600181111561224557612244612c80565b5b600560008473ffffffffffffffffffffffffffffffffffffffff1673ffffffffffffffffffffffffffffffffffffffff16815260200190815260200160002060000160149054906101000a900460ff1660018111156122a7576122a6612c80565b5b146122e7576040517f08c379a00000000000000000000000000000000000000000000000000000000081526004016122de90613321565b60405180910390fd5b6000805b600560008573ffffffffffffffffffffffffffffffffffffffff1673ffffffffffffffffffffffffffffffffffffffff168152602001908152602001600020600101805490508110156123b35782600560008673ffffffffffffffffffffffffffffffffffffffff1673ffffffffffffffffffffffffffffffffffffffff168152602001908152602001600020600101828154811061238d5761238c613341565b5b9060005260206000200154036123a657600191506123b3565b80806001019150506122eb565b50806123f4576040517f08c379a00000000000000000000000000000000000000000000000000000000081526004016123eb906133e2565b60405180910390fd5b600060086000878152602001908152602001600020600001541461244d576040517f08c379a000000000000000000000000000000000000000000000000000000000815260040161244490613994565b60405180910390fd5b60006008600087815260200190815260200160002090508581600001819055508481600101908161247e919061370c565b5060008160040160006101000a81548160ff021916908360028111156124a7576124a6612c80565b5b021790555042816003018190555060008160020181905550600660008154809291906124d29061328d565b9190505550505050505050565b60606000600560008473ffffffffffffffffffffffffffffffffffffffff1673ffffffffffffffffffffffffffffffffffffffff16815260200190815260200160002090508060010180548060200260200160405190810160405280929190818152602001828054801561257257602002820191906000526020600020905b81548152602001906001019080831161255e575b5050505050915050919050565b60086020528060005260406000206000915090508060000154908060010180546125a89061352f565b80601f01602080910402602001604051908101604052809291908181526020018280546125d49061352f565b80156126215780601f106125f657610100808354040283529160200191612621565b820191906000526020600020905b81548152906001019060200180831161260457829003601f168201915b5050505050908060020154908060030154908060040160009054906101000a900460ff16905085565b6126526126d0565b600073ffffffffffffffffffffffffffffffffffffffff168173ffffffffffffffffffffffffffffffffffffffff16036126c45760006040517f1e4fbdf70000000000000000000000000000000000000000000000000000000081526004016126bb9190612e64565b60405180910390fd5b6126cd81612757565b50565b6126d861281b565b73ffffffffffffffffffffffffffffffffffffffff166126f66117fb565b73ffffffffffffffffffffffffffffffffffffffff16146127555761271961281b565b6040517f118cdaa700000000000000000000000000000000000000000000000000000000815260040161274c9190612e64565b60405180910390fd5b565b60008060009054906101000a900473ffffffffffffffffffffffffffffffffffffffff169050816000806101000a81548173ffffffffffffffffffffffffffffffffffffffff021916908373ffffffffffffffffffffffffffffffffffffffff1602179055508173ffffffffffffffffffffffffffffffffffffffff168173ffffffffffffffffffffffffffffffffffffffff167f8be0079c531659141344cd1fd0a4f28419497f9722a3daafe3b4186f6b6457e060405160405180910390a35050565b600033905090565b82805482825590600052602060002090810192821561285f579160200282015b8281111561285e578251825591602001919060010190612843565b5b50905061286c9190612870565b5090565b5b80821115612889576000816000905550600101612871565b5090565b6000604051905090565b600080fd5b600080fd5b600073ffffffffffffffffffffffffffffffffffffffff82169050919050565b60006128cc826128a1565b9050919050565b6128dc816128c1565b81146128e757600080fd5b50565b6000813590506128f9816128d3565b92915050565b6000819050919050565b612912816128ff565b811461291d57600080fd5b50565b60008135905061292f81612909565b92915050565b6000806040838503121561294c5761294b612897565b5b600061295a858286016128ea565b925050602061296b85828601612920565b9150509250929050565b600080fd5b600080fd5b6000601f19601f8301169050919050565b7f4e487b7100000000000000000000000000000000000000000000000000000000600052604160045260246000fd5b6129c88261297f565b810181811067ffffffffffffffff821117156129e7576129e6612990565b5b80604052505050565b60006129fa61288d565b9050612a0682826129bf565b919050565b600067ffffffffffffffff821115612a2657612a25612990565b5b612a2f8261297f565b9050602081019050919050565b82818337600083830152505050565b6000612a5e612a5984612a0b565b6129f0565b905082815260208101848484011115612a7a57612a7961297a565b5b612a85848285612a3c565b509392505050565b600082601f830112612aa257612aa1612975565b5b8135612ab2848260208601612a4b565b91505092915050565b600080600060608486031215612ad457612ad3612897565b5b6000612ae286828701612920565b935050602084013567ffffffffffffffff811115612b0357612b0261289c565b5b612b0f86828701612a8d565b925050604084013567ffffffffffffffff811115612b3057612b2f61289c565b5b612b3c86828701612a8d565b9150509250925092565b600060208284031215612b5c57612b5b612897565b5b6000612b6a848285016128ea565b91505092915050565b600060208284031215612b8957612b88612897565b5b6000612b9784828501612920565b91505092915050565b600081519050919050565b600082825260208201905092915050565b60005b83811015612bda578082015181840152602081019050612bbf565b60008484015250505050565b6000612bf182612ba0565b612bfb8185612bab565b9350612c0b818560208601612bbc565b612c148161297f565b840191505092915050565b60006040820190508181036000830152612c398185612be6565b90508181036020830152612c4d8184612be6565b90509392505050565b612c5f816128ff565b82525050565b6000602082019050612c7a6000830184612c56565b92915050565b7f4e487b7100000000000000000000000000000000000000000000000000000000600052602160045260246000fd5b60028110612cc057612cbf612c80565b5b50565b6000819050612cd182612caf565b919050565b6000612ce182612cc3565b9050919050565b612cf181612cd6565b82525050565b6000602082019050612d0c6000830184612ce8565b92915050565b600081519050919050565b600082825260208201905092915050565b6000819050602082019050919050565b600082825260208201905092915050565b6000612d5a82612ba0565b612d648185612d3e565b9350612d74818560208601612bbc565b612d7d8161297f565b840191505092915050565b6000612d948383612d4f565b905092915050565b6000602082019050919050565b6000612db482612d12565b612dbe8185612d1d565b935083602082028501612dd085612d2e565b8060005b85811015612e0c5784840389528151612ded8582612d88565b9450612df883612d9c565b925060208a01995050600181019050612dd4565b50829750879550505050505092915050565b60006040820190508181036000830152612e388185612da9565b90508181036020830152612e4c8184612da9565b90509392505050565b612e5e816128c1565b82525050565b6000602082019050612e796000830184612e55565b92915050565b60028110612e8c57600080fd5b50565b600081359050612e9e81612e7f565b92915050565b60008060408385031215612ebb57612eba612897565b5b6000612ec9858286016128ea565b9250506020612eda85828601612e8f565b9150509250929050565b60028110612ef557612ef4612c80565b5b50565b6000819050612f0682612ee4565b919050565b6000612f1682612ef8565b9050919050565b612f2681612f0b565b82525050565b60008115159050919050565b612f4181612f2c565b82525050565b600060c082019050612f5c6000830189612e55565b612f696020830188612ce8565b612f766040830187612f1d565b612f836060830186612f38565b612f906080830185612c56565b612f9d60a0830184612c56565b979650505050505050565b60038110612fb957612fb8612c80565b5b50565b6000819050612fca82612fa8565b919050565b6000612fda82612fbc565b9050919050565b612fea81612fcf565b82525050565b600060a0820190506130056000830188612c56565b81810360208301526130178187612be6565b90506130266040830186612c56565b6130336060830185612c56565b6130406080830184612fe1565b9695505050505050565b6000806040838503121561306157613060612897565b5b600061306f85828601612920565b925050602083013567ffffffffffffffff8111156130905761308f61289c565b5b61309c85828601612a8d565b9150509250929050565b600081519050919050565b600082825260208201905092915050565b6000819050602082019050919050565b6130db816128ff565b82525050565b60006130ed83836130d2565b60208301905092915050565b6000602082019050919050565b6000613111826130a6565b61311b81856130b1565b9350613126836130c2565b8060005b8381101561315757815161313e88826130e1565b9750613149836130f9565b92505060018101905061312a565b5085935050505092915050565b6000602082019050818103600083015261317e8184613106565b905092915050565b7f55736572206973204e6f74205265676973746572656400000000000000000000600082015250565b60006131bc601683612bab565b91506131c782613186565b602082019050919050565b600060208201905081810360008301526131eb816131af565b9050919050565b7f55736572206973204e6f74204163746976650000000000000000000000000000600082015250565b6000613228601283612bab565b9150613233826131f2565b602082019050919050565b600060208201905081810360008301526132578161321b565b9050919050565b7f4e487b7100000000000000000000000000000000000000000000000000000000600052601160045260246000fd5b6000613298826128ff565b91507fffffffffffffffffffffffffffffffffffffffffffffffffffffffffffffffff82036132ca576132c961325e565b5b600182019050919050565b7f55736572206973206e6f7420616e2061756469746f7200000000000000000000600082015250565b600061330b601683612bab565b9150613316826132d5565b602082019050919050565b6000602082019050818103600083015261333a816132fe565b9050919050565b7f4e487b7100000000000000000000000000000000000000000000000000000000600052603260045260246000fd5b7f55736572206973206e6f742061737369676e656420746f20746869732063617360008201527f6500000000000000000000000000000000000000000000000000000000000000602082015250565b60006133cc602183612bab565b91506133d782613370565b604082019050919050565b600060208201905081810360008301526133fb816133bf565b9050919050565b7f4361736520646f6573206e6f7420657869737400000000000000000000000000600082015250565b6000613438601383612bab565b915061344382613402565b602082019050919050565b600060208201905081810360008301526134678161342b565b9050919050565b7f43617365206973206e6f74206f70656e20666f722065766964656e636520737560008201527f626d697373696f6e000000000000000000000000000000000000000000000000602082015250565b60006134ca602883612bab565b91506134d58261346e565b604082019050919050565b600060208201905081810360008301526134f9816134bd565b9050919050565b7f4e487b7100000000000000000000000000000000000000000000000000000000600052602260045260246000fd5b6000600282049050600182168061354757607f821691505b60208210810361355a57613559613500565b5b50919050565b60008190508160005260206000209050919050565b60006020601f8301049050919050565b600082821b905092915050565b6000600883026135c27fffffffffffffffffffffffffffffffffffffffffffffffffffffffffffffffff82613585565b6135cc8683613585565b95508019841693508086168417925050509392505050565b6000819050919050565b60006136096136046135ff846128ff565b6135e4565b6128ff565b9050919050565b6000819050919050565b613623836135ee565b61363761362f82613610565b848454613592565b825550505050565b600090565b61364c61363f565b61365781848461361a565b505050565b5b8181101561367b57613670600082613644565b60018101905061365d565b5050565b601f8211156136c05761369181613560565b61369a84613575565b810160208510156136a9578190505b6136bd6136b585613575565b83018261365c565b50505b505050565b600082821c905092915050565b60006136e3600019846008026136c5565b1980831691505092915050565b60006136fc83836136d2565b9150826002028217905092915050565b61371582612ba0565b67ffffffffffffffff81111561372e5761372d612990565b5b613738825461352f565b61374382828561367f565b600060209050601f8311600181146137765760008415613764578287015190505b61376e85826136f0565b8655506137d6565b601f19841661378486613560565b60005b828110156137ac57848901518255600182019150602085019450602081019050613787565b868310156137c957848901516137c5601f8916826136d2565b8355505b6001600288020188555050505b505050505050565b7f5573657220416464726573732063616e7420626520656d707479000000000000600082015250565b6000613814601a83612bab565b915061381f826137de565b602082019050919050565b6000602082019050818103600083015261384381613807565b9050919050565b7f41756469746f72206973206e6f742061737369676e656420746f20746869732060008201527f6361736500000000000000000000000000000000000000000000000000000000602082015250565b60006138a6602483612bab565b91506138b18261384a565b604082019050919050565b600060208201905081810360008301526138d581613899565b9050919050565b7f557365722069732020416c726561647920526567697374657265640000000000600082015250565b6000613912601b83612bab565b915061391d826138dc565b602082019050919050565b6000602082019050818103600083015261394181613905565b9050919050565b7f4361736520616c72656164792065786973747300000000000000000000000000600082015250565b600061397e601383612bab565b915061398982613948565b602082019050919050565b600060208201905081810360008301526139ad81613971565b905091905056fea26469706673582212202ac5b84086a197df6c8ceee26dd7c95973b35129ec3cf6aa2be7ae6a61c2157f64736f6c634300081c0033",
  "linkReferences": {},
  "deployedLinkReferences": {}
}