{
  "_format": "hh-sol-artifact-1",
  "contractName": "EMS",
  "sourceName": "contracts/EMS.sol",
  "abi": [
    {
      "inputs": [],
      "stateMutability": "nonpayable",
      "type": "constructor"
    },
    {
      "inputs": [
        {
          "internalType": "address",
          "name": "owner",
          "type": "address"
        }
      ],
      "name": "OwnableInvalidOwner",
      "type": "error"
    },
    {
      "inputs": [
        {
          "internalType": "address",
          "name": "account",
          "type": "address"
        }
      ],
      "name": "OwnableUnauthorizedAccount",
      "type": "error"
    },
    {
      "anonymous": false,
      "inputs": [
        {
          "indexed": true,
          "internalType": "address",
          "name": "auditor",
          "type": "address"
        },
        {
          "indexed": true,
          "internalType": "uint256",
          "name": "_caseNumber",
          "type": "uint256"
        }
      ],
      "name": "CaseAssigned",
      "type": "event"
    },
    {
      "anonymous": false,
      "inputs": [
        {
          "indexed": true,
          "internalType": "address",
          "name": "previousOwner",
          "type": "address"
        },
        {
          "indexed": true,
          "internalType": "address",
          "name": "newOwner",
          "type": "address"
        }
      ],
      "name": "OwnershipTransferred",
      "type": "event"
    },
    {
      "anonymous": false,
      "inputs": [
        {
          "indexed": true,
          "internalType": "address",
          "name": "auditor",
          "type": "address"
        }
      ],
      "name": "UserRegistered",
      "type": "event"
    },
    {
      "inputs": [
        {
          "internalType": "address",
          "name": "_userAddress",
          "type": "address"
        }
      ],
      "name": "activateUser",
      "outputs": [],
      "stateMutability": "nonpayable",
      "type": "function"
    },
    {
      "inputs": [
        {
          "internalType": "uint256",
          "name": "_caseNumber",
          "type": "uint256"
        },
        {
          "internalType": "string",
          "name": "_typeOfEvidence",
          "type": "string"
        },
        {
          "internalType": "string",
          "name": "_evidenceData",
          "type": "string"
        }
      ],
      "name": "addEvidenceToCase",
      "outputs": [],
      "stateMutability": "nonpayable",
      "type": "function"
    },
    {
      "inputs": [
        {
          "internalType": "address",
          "name": "_userAddress",
          "type": "address"
        },
        {
          "internalType": "uint256",
          "name": "_caseNumber",
          "type": "uint256"
        }
      ],
      "name": "assignCaseToUser",
      "outputs": [],
      "stateMutability": "nonpayable",
      "type": "function"
    },
    {
      "inputs": [
        {
          "internalType": "uint256",
          "name": "",
          "type": "uint256"
        }
      ],
      "name": "cases",
      "outputs": [
        {
          "internalType": "uint256",
          "name": "caseNumber",
          "type": "uint256"
        },
        {
          "internalType": "string",
          "name": "caseDescription",
          "type": "string"
        },
        {
          "internalType": "uint256",
          "name": "totalCaseEvidences",
          "type": "uint256"
        },
        {
          "internalType": "uint256",
          "name": "timestamp",
          "type": "uint256"
        },
        {
          "internalType": "enum EMS.CaseStatus",
          "name": "caseStatus",
          "type": "uint8"
        }
      ],
      "stateMutability": "view",
      "type": "function"
    },
    {
      "inputs": [
        {
          "internalType": "address",
          "name": "_userAddress",
          "type": "address"
        }
      ],
      "name": "checkUserRole",
      "outputs": [
        {
          "internalType": "enum EMS.UserRole",
          "name": "",
          "type": "uint8"
        }
      ],
      "stateMutability": "view",
      "type": "function"
    },
    {
      "inputs": [
        {
          "internalType": "uint256",
          "name": "_caseNumber",
          "type": "uint256"
        }
      ],
      "name": "closeCase",
      "outputs": [],
      "stateMutability": "nonpayable",
      "type": "function"
    },
    {
      "inputs": [
        {
          "internalType": "address",
          "name": "_userAddress",
          "type": "address"
        }
      ],
      "name": "deactivateUser",
      "outputs": [],
      "stateMutability": "nonpayable",
      "type": "function"
    },
    {
      "inputs": [
        {
          "internalType": "uint256",
          "name": "",
          "type": "uint256"
        }
      ],
      "name": "evidences",
      "outputs": [
        {
          "internalType": "string",
          "name": "typeOfEvidence",
          "type": "string"
        },
        {
          "internalType": "string",
          "name": "evidenceData",
          "type": "string"
        }
      ],
      "stateMutability": "view",
      "type": "function"
    },
    {
      "inputs": [
        {
          "internalType": "uint256",
          "name": "_caseNumber",
          "type": "uint256"
        }
      ],
      "name": "getCaseDetails",
      "outputs": [
        {
          "internalType": "uint256",
          "name": "",
          "type": "uint256"
        },
        {
          "internalType": "string",
          "name": "",
          "type": "string"
        },
        {
          "internalType": "uint256",
          "name": "",
          "type": "uint256"
        },
        {
          "internalType": "uint256",
          "name": "",
          "type": "uint256"
        },
        {
          "internalType": "enum EMS.CaseStatus",
          "name": "",
          "type": "uint8"
        }
      ],
      "stateMutability": "view",
      "type": "function"
    },
    {
      "inputs": [
        {
          "internalType": "uint256",
          "name": "_caseNumber",
          "type": "uint256"
        }
      ],
      "name": "getCaseEvidences",
      "outputs": [
        {
          "internalType": "string[]",
          "name": "",
          "type": "string[]"
        },
        {
          "internalType": "string[]",
          "name": "",
          "type": "string[]"
        }
      ],
      "stateMutability": "view",
      "type": "function"
    },
    {
      "inputs": [
        {
          "internalType": "address",
          "name": "_userAddress",
          "type": "address"
        }
      ],
      "name": "getUserCases",
      "outputs": [
        {
          "internalType": "uint256[]",
          "name": "",
          "type": "uint256[]"
        }
      ],
      "stateMutability": "view",
      "type": "function"
    },
    {
      "inputs": [
        {
          "internalType": "address",
          "name": "_userAddress",
          "type": "address"
        }
      ],
      "name": "isAuditor",
      "outputs": [
        {
          "internalType": "bool",
          "name": "",
          "type": "bool"
        }
      ],
      "stateMutability": "view",
      "type": "function"
    },
    {
      "inputs": [
        {
          "internalType": "address",
          "name": "_userAddress",
          "type": "address"
        }
      ],
      "name": "isGuestUser",
      "outputs": [
        {
          "internalType": "bool",
          "name": "",
          "type": "bool"
        }
      ],
      "stateMutability": "view",
      "type": "function"
    },
    {
      "inputs": [
        {
          "internalType": "uint256",
          "name": "_caseNumber",
          "type": "uint256"
        }
      ],
      "name": "openCase",
      "outputs": [],
      "stateMutability": "nonpayable",
      "type": "function"
    },
    {
      "inputs": [],
      "name": "owner",
      "outputs": [
        {
          "internalType": "address",
          "name": "",
          "type": "address"
        }
      ],
      "stateMutability": "view",
      "type": "function"
    },
    {
      "inputs": [
        {
          "internalType": "address",
          "name": "_userAddress",
          "type": "address"
        },
        {
          "internalType": "enum EMS.UserRole",
          "name": "_userRole",
          "type": "uint8"
        }
      ],
      "name": "registerUser",
      "outputs": [],
      "stateMutability": "nonpayable",
      "type": "function"
    },
    {
      "inputs": [],
      "name": "renounceOwnership",
      "outputs": [],
      "stateMutability": "nonpayable",
      "type": "function"
    },
    {
      "inputs": [],
      "name": "totalAuditors",
      "outputs": [
        {
          "internalType": "uint256",
          "name": "",
          "type": "uint256"
        }
      ],
      "stateMutability": "view",
      "type": "function"
    },
    {
      "inputs": [],
      "name": "totalGuests",
      "outputs": [
        {
          "internalType": "uint256",
          "name": "",
          "type": "uint256"
        }
      ],
      "stateMutability": "view",
      "type": "function"
    },
    {
      "inputs": [],
      "name": "totalRegisteredUsers",
      "outputs": [
        {
          "internalType": "uint256",
          "name": "",
          "type": "uint256"
        }
      ],
      "stateMutability": "view",
      "type": "function"
    },
    {
      "inputs": [
        {
          "internalType": "address",
          "name": "newOwner",
          "type": "address"
        }
      ],
      "name": "transferOwnership",
      "outputs": [],
      "stateMutability": "nonpayable",
      "type": "function"
    },
    {
      "inputs": [
        {
          "internalType": "uint256",
          "name": "_caseNumber",
          "type": "uint256"
        },
        {
          "internalType": "string",
          "name": "_caseDescription",
          "type": "string"
        }
      ],
      "name": "updateCase",
      "outputs": [],
      "stateMutability": "nonpayable",
      "type": "function"
    },
    {
      "inputs": [
        {
          "internalType": "address",
          "name": "",
          "type": "address"
        }
      ],
      "name": "users",
      "outputs": [
        {
          "internalType": "address",
          "name": "userAddress",
          "type": "address"
        },
        {
          "internalType": "enum EMS.UserRole",
          "name": "userRole",
          "type": "uint8"
        },
        {
          "internalType": "enum EMS.UserStatus",
          "name": "userStatus",
          "type": "uint8"
        },
        {
          "internalType": "bool",
          "name": "isRegistered",
          "type": "bool"
        },
        {
          "internalType": "uint256",
          "name": "totalAssignedCases",
          "type": "uint256"
        },
        {
          "internalType": "uint256",
          "name": "timestamp",
          "type": "uint256"
        }
      ],
      "stateMutability": "view",
      "type": "function"
    }
  ],
  "bytecode": "0x608060405233600160006101000a81548173ffffffffffffffffffffffffffffffffffffffff021916908373ffffffffffffffffffffffffffffffffffffffff1602179055506000600255600060035560006004556000600655600060075534801561006a57600080fd5b50600160009054906101000a900473ffffffffffffffffffffffffffffffffffffffff16600073ffffffffffffffffffffffffffffffffffffffff168173ffffffffffffffffffffffffffffffffffffffff16036101005760006040517f1e4fbdf70000000000000000000000000000000000000000000000000000000081526004016100f7919061021a565b60405180910390fd5b61010f8161011560201b60201c565b50610235565b60008060009054906101000a900473ffffffffffffffffffffffffffffffffffffffff169050816000806101000a81548173ffffffffffffffffffffffffffffffffffffffff021916908373ffffffffffffffffffffffffffffffffffffffff1602179055508173ffffffffffffffffffffffffffffffffffffffff168173ffffffffffffffffffffffffffffffffffffffff167f8be0079c531659141344cd1fd0a4f28419497f9722a3daafe3b4186f6b6457e060405160405180910390a35050565b600073ffffffffffffffffffffffffffffffffffffffff82169050919050565b6000610204826101d9565b9050919050565b610214816101f9565b82525050565b600060208201905061022f600083018461020b565b92915050565b6137e9806102446000396000f3fe608060405234801561001057600080fd5b506004361061014d5760003560e01c8063715018a6116100c3578063b4acfe1c1161007c578063b4acfe1c146103a3578063c3a90635146103bf578063c8ba108e146103f3578063e1075ed31461040f578063f09790dd1461043f578063f2fde38b146104735761014d565b8063715018a6146102dc5780637164b359146102e65780638da5cb5b1461030457806393585620146103225780639e9fa09714610352578063a87430ba1461036e5761014d565b80633c7afca5116101155780633c7afca5146101f35780633f755b4b146102115780633ffad9121461022f57806349b905571461024b5780634ac269211461027b5780636680f8a1146102ab5761014d565b80630e7ce8181461015257806319ebebcf1461016e5780631a47767b1461018a5780632073b17c146101a65780632e4546cd146101c2575b600080fd5b61016c60048036038101906101679190612719565b61048f565b005b6101886004803603810190610183919061289f565b6106ef565b005b6101a4600480360381019061019f919061292a565b610a59565b005b6101c060048036038101906101bb9190612957565b610bd8565b005b6101dc60048036038101906101d79190612957565b610de2565b6040516101ea929190612a03565b60405180910390f35b6101fb610f16565b6040516102089190612a49565b60405180910390f35b610219610f1c565b6040516102269190612a49565b60405180910390f35b61024960048036038101906102449190612957565b610f22565b005b6102656004803603810190610260919061292a565b61112c565b6040516102729190612a7f565b60405180910390f35b6102956004803603810190610290919061292a565b6111ab565b6040516102a29190612b11565b60405180910390f35b6102c560048036038101906102c09190612957565b611315565b6040516102d3929190612c38565b60405180910390f35b6102e461170e565b005b6102ee611722565b6040516102fb9190612a49565b60405180910390f35b61030c611728565b6040516103199190612c7e565b60405180910390f35b61033c6004803603810190610337919061292a565b611751565b6040516103499190612a7f565b60405180910390f35b61036c60048036038101906103679190612cbe565b6117d0565b005b6103886004803603810190610383919061292a565b611bc1565b60405161039a96959493929190612d46565b60405180910390f35b6103bd60048036038101906103b8919061292a565b611c44565b005b6103d960048036038101906103d49190612957565b611dc3565b6040516103ea959493929190612def565b60405180910390f35b61040d60048036038101906104089190612e49565b612013565b005b6104296004803603810190610424919061292a565b6122c3565b6040516104369190612f63565b60405180910390f35b61045960048036038101906104549190612957565b612363565b60405161046a959493929190612def565b60405180910390f35b61048d6004803603810190610488919061292a565b61242e565b005b6104976124b4565b8160011515600560008373ffffffffffffffffffffffffffffffffffffffff1673ffffffffffffffffffffffffffffffffffffffff16815260200190815260200160002060000160169054906101000a900460ff1615151461052e576040517f08c379a000000000000000000000000000000000000000000000000000000000815260040161052590612fd1565b60405180910390fd5b8260018081111561054257610541612a9a565b5b600560008373ffffffffffffffffffffffffffffffffffffffff1673ffffffffffffffffffffffffffffffffffffffff16815260200190815260200160002060000160159054906101000a900460ff1660018111156105a4576105a3612a9a565b5b146105e4576040517f08c379a00000000000000000000000000000000000000000000000000000000081526004016105db9061303d565b60405180910390fd5b600560008573ffffffffffffffffffffffffffffffffffffffff1673ffffffffffffffffffffffffffffffffffffffff168152602001908152602001600020600101839080600181540180825580915050600190039060005260206000200160009091909190915055600560008573ffffffffffffffffffffffffffffffffffffffff1673ffffffffffffffffffffffffffffffffffffffff16815260200190815260200160002060020160008154809291906106a09061308c565b9190505550828473ffffffffffffffffffffffffffffffffffffffff167f1a2b30a250b2e152ac2f021922b4e079d0bc2824daba2b76f9e8c67bbfeef2df60405160405180910390a350505050565b33836000600181111561070557610704612a9a565b5b600560008473ffffffffffffffffffffffffffffffffffffffff1673ffffffffffffffffffffffffffffffffffffffff16815260200190815260200160002060000160149054906101000a900460ff16600181111561076757610766612a9a565b5b146107a7576040517f08c379a000000000000000000000000000000000000000000000000000000000815260040161079e90613120565b60405180910390fd5b6000805b600560008573ffffffffffffffffffffffffffffffffffffffff1673ffffffffffffffffffffffffffffffffffffffff168152602001908152602001600020600101805490508110156108735782600560008673ffffffffffffffffffffffffffffffffffffffff1673ffffffffffffffffffffffffffffffffffffffff168152602001908152602001600020600101828154811061084d5761084c613140565b5b9060005260206000200154036108665760019150610873565b80806001019150506107ab565b50806108b4576040517f08c379a00000000000000000000000000000000000000000000000000000000081526004016108ab906131e1565b60405180910390fd5b600060086000888152602001908152602001600020600001540361090d576040517f08c379a00000000000000000000000000000000000000000000000000000000081526004016109049061324d565b60405180910390fd5b6001600281111561092157610920612a9a565b5b6008600088815260200190815260200160002060040160009054906101000a900460ff16600281111561095757610956612a9a565b5b14610997576040517f08c379a000000000000000000000000000000000000000000000000000000000815260040161098e906132df565b60405180910390fd5b60006008600088815260200190815260200160002090508060050160405180604001604052808881526020018781525090806001815401808255809150506001900390600052602060002090600202016000909190919091506000820151816000019081610a05919061350b565b506020820151816001019081610a1b919061350b565b505050806002016000815480929190610a339061308c565b919050555060076000815480929190610a4b9061308c565b919050555050505050505050565b610a616124b4565b80600073ffffffffffffffffffffffffffffffffffffffff168173ffffffffffffffffffffffffffffffffffffffff1603610ad1576040517f08c379a0000000000000000000000000000000000000000000000000000000008152600401610ac890613629565b60405180910390fd5b8160011515600560008373ffffffffffffffffffffffffffffffffffffffff1673ffffffffffffffffffffffffffffffffffffffff16815260200190815260200160002060000160169054906101000a900460ff16151514610b68576040517f08c379a0000000000000000000000000000000000000000000000000000000008152600401610b5f90612fd1565b60405180910390fd5b6000600560008573ffffffffffffffffffffffffffffffffffffffff1673ffffffffffffffffffffffffffffffffffffffff16815260200190815260200160002060000160156101000a81548160ff02191690836001811115610bce57610bcd612a9a565b5b0217905550505050565b338160006001811115610bee57610bed612a9a565b5b600560008473ffffffffffffffffffffffffffffffffffffffff1673ffffffffffffffffffffffffffffffffffffffff16815260200190815260200160002060000160149054906101000a900460ff166001811115610c5057610c4f612a9a565b5b14610c90576040517f08c379a0000000000000000000000000000000000000000000000000000000008152600401610c8790613120565b60405180910390fd5b6000805b600560008573ffffffffffffffffffffffffffffffffffffffff1673ffffffffffffffffffffffffffffffffffffffff16815260200190815260200160002060010180549050811015610d5c5782600560008673ffffffffffffffffffffffffffffffffffffffff1673ffffffffffffffffffffffffffffffffffffffff1681526020019081526020016000206001018281548110610d3657610d35613140565b5b906000526020600020015403610d4f5760019150610d5c565b8080600101915050610c94565b5080610d9d576040517f08c379a0000000000000000000000000000000000000000000000000000000008152600401610d94906131e1565b60405180910390fd5b60016008600086815260200190815260200160002060040160006101000a81548160ff02191690836002811115610dd757610dd6612a9a565b5b021790555050505050565b6009602052806000526040600020600091509050806000018054610e059061332e565b80601f0160208091040260200160405190810160405280929190818152602001828054610e319061332e565b8015610e7e5780601f10610e5357610100808354040283529160200191610e7e565b820191906000526020600020905b815481529060010190602001808311610e6157829003601f168201915b505050505090806001018054610e939061332e565b80601f0160208091040260200160405190810160405280929190818152602001828054610ebf9061332e565b8015610f0c5780601f10610ee157610100808354040283529160200191610f0c565b820191906000526020600020905b815481529060010190602001808311610eef57829003601f168201915b5050505050905082565b60045481565b60035481565b338160006001811115610f3857610f37612a9a565b5b600560008473ffffffffffffffffffffffffffffffffffffffff1673ffffffffffffffffffffffffffffffffffffffff16815260200190815260200160002060000160149054906101000a900460ff166001811115610f9a57610f99612a9a565b5b14610fda576040517f08c379a0000000000000000000000000000000000000000000000000000000008152600401610fd190613120565b60405180910390fd5b6000805b600560008573ffffffffffffffffffffffffffffffffffffffff1673ffffffffffffffffffffffffffffffffffffffff168152602001908152602001600020600101805490508110156110a65782600560008673ffffffffffffffffffffffffffffffffffffffff1673ffffffffffffffffffffffffffffffffffffffff16815260200190815260200160002060010182815481106110805761107f613140565b5b90600052602060002001540361109957600191506110a6565b8080600101915050610fde565b50806110e7576040517f08c379a00000000000000000000000000000000000000000000000000000000081526004016110de906131e1565b60405180910390fd5b60026008600086815260200190815260200160002060040160006101000a81548160ff0219169083600281111561112157611120612a9a565b5b021790555050505050565b600080600181111561114157611140612a9a565b5b600560008473ffffffffffffffffffffffffffffffffffffffff1673ffffffffffffffffffffffffffffffffffffffff16815260200190815260200160002060000160149054906101000a900460ff1660018111156111a3576111a2612a9a565b5b149050919050565b60006111b56124b4565b81600073ffffffffffffffffffffffffffffffffffffffff168173ffffffffffffffffffffffffffffffffffffffff1603611225576040517f08c379a000000000000000000000000000000000000000000000000000000000815260040161121c90613629565b60405180910390fd5b8260011515600560008373ffffffffffffffffffffffffffffffffffffffff1673ffffffffffffffffffffffffffffffffffffffff16815260200190815260200160002060000160169054906101000a900460ff161515146112bc576040517f08c379a00000000000000000000000000000000000000000000000000000000081526004016112b390612fd1565b60405180910390fd5b600560008573ffffffffffffffffffffffffffffffffffffffff1673ffffffffffffffffffffffffffffffffffffffff16815260200190815260200160002060000160149054906101000a900460ff1692505050919050565b60608033836000805b600560008573ffffffffffffffffffffffffffffffffffffffff1673ffffffffffffffffffffffffffffffffffffffff168152602001908152602001600020600101805490508110156113e65782600560008673ffffffffffffffffffffffffffffffffffffffff1673ffffffffffffffffffffffffffffffffffffffff16815260200190815260200160002060010182815481106113c0576113bf613140565b5b9060005260206000200154036113d957600191506113e6565b808060010191505061131e565b5080611427576040517f08c379a000000000000000000000000000000000000000000000000000000000815260040161141e906136bb565b60405180910390fd5b6000600860008881526020019081526020016000206000015403611480576040517f08c379a00000000000000000000000000000000000000000000000000000000081526004016114779061324d565b60405180910390fd5b600060086000888152602001908152602001600020905060008160050180549050905060008167ffffffffffffffff8111156114bf576114be612774565b5b6040519080825280602002602001820160405280156114f257816020015b60608152602001906001900390816114dd5790505b50905060008267ffffffffffffffff81111561151157611510612774565b5b60405190808252806020026020018201604052801561154457816020015b606081526020019060019003908161152f5790505b50905060005b838110156116fb5784600501818154811061156857611567613140565b5b906000526020600020906002020160000180546115849061332e565b80601f01602080910402602001604051908101604052809291908181526020018280546115b09061332e565b80156115fd5780601f106115d2576101008083540402835291602001916115fd565b820191906000526020600020905b8154815290600101906020018083116115e057829003601f168201915b505050505083828151811061161557611614613140565b5b602002602001018190525084600501818154811061163657611635613140565b5b906000526020600020906002020160010180546116529061332e565b80601f016020809104026020016040519081016040528092919081815260200182805461167e9061332e565b80156116cb5780601f106116a0576101008083540402835291602001916116cb565b820191906000526020600020905b8154815290600101906020018083116116ae57829003601f168201915b50505050508282815181106116e3576116e2613140565b5b6020026020010181905250808060010191505061154a565b5081819850985050505050505050915091565b6117166124b4565b611720600061253b565b565b60025481565b60008060009054906101000a900473ffffffffffffffffffffffffffffffffffffffff16905090565b600060018081111561176657611765612a9a565b5b600560008473ffffffffffffffffffffffffffffffffffffffff1673ffffffffffffffffffffffffffffffffffffffff16815260200190815260200160002060000160149054906101000a900460ff1660018111156117c8576117c7612a9a565b5b149050919050565b6117d86124b4565b81600073ffffffffffffffffffffffffffffffffffffffff168173ffffffffffffffffffffffffffffffffffffffff1603611848576040517f08c379a000000000000000000000000000000000000000000000000000000000815260040161183f90613629565b60405180910390fd5b60001515600560008573ffffffffffffffffffffffffffffffffffffffff1673ffffffffffffffffffffffffffffffffffffffff16815260200190815260200160002060000160169054906101000a900460ff161515146118de576040517f08c379a00000000000000000000000000000000000000000000000000000000081526004016118d590613727565b60405180910390fd5b6040518060e001604052808473ffffffffffffffffffffffffffffffffffffffff16815260200183600181111561191857611917612a9a565b5b81526020016000600181111561193157611930612a9a565b5b8152602001600115158152602001600067ffffffffffffffff81111561195a57611959612774565b5b6040519080825280602002602001820160405280156119885781602001602082028036833780820191505090505b5081526020016000815260200142815250600560008573ffffffffffffffffffffffffffffffffffffffff1673ffffffffffffffffffffffffffffffffffffffff16815260200190815260200160002060008201518160000160006101000a81548173ffffffffffffffffffffffffffffffffffffffff021916908373ffffffffffffffffffffffffffffffffffffffff16021790555060208201518160000160146101000a81548160ff02191690836001811115611a4a57611a49612a9a565b5b021790555060408201518160000160156101000a81548160ff02191690836001811115611a7a57611a79612a9a565b5b021790555060608201518160000160166101000a81548160ff0219169083151502179055506080820151816001019080519060200190611abb929190612607565b5060a0820151816002015560c0820151816003015590505060006001811115611ae757611ae6612a9a565b5b826001811115611afa57611af9612a9a565b5b03611b1c5760026000815480929190611b129061308c565b9190505550611b61565b600180811115611b2f57611b2e612a9a565b5b826001811115611b4257611b41612a9a565b5b03611b605760036000815480929190611b5a9061308c565b91905055505b5b60046000815480929190611b749061308c565b91905055508273ffffffffffffffffffffffffffffffffffffffff167f54db7a5cb4735e1aac1f53db512d3390390bb6637bd30ad4bf9fc98667d9b9b960405160405180910390a2505050565b60056020528060005260406000206000915090508060000160009054906101000a900473ffffffffffffffffffffffffffffffffffffffff16908060000160149054906101000a900460ff16908060000160159054906101000a900460ff16908060000160169054906101000a900460ff16908060020154908060030154905086565b611c4c6124b4565b80600073ffffffffffffffffffffffffffffffffffffffff168173ffffffffffffffffffffffffffffffffffffffff1603611cbc576040517f08c379a0000000000000000000000000000000000000000000000000000000008152600401611cb390613629565b60405180910390fd5b8160011515600560008373ffffffffffffffffffffffffffffffffffffffff1673ffffffffffffffffffffffffffffffffffffffff16815260200190815260200160002060000160169054906101000a900460ff16151514611d53576040517f08c379a0000000000000000000000000000000000000000000000000000000008152600401611d4a90612fd1565b60405180910390fd5b6001600560008573ffffffffffffffffffffffffffffffffffffffff1673ffffffffffffffffffffffffffffffffffffffff16815260200190815260200160002060000160156101000a81548160ff02191690836001811115611db957611db8612a9a565b5b0217905550505050565b60006060600080600033866000805b600560008573ffffffffffffffffffffffffffffffffffffffff1673ffffffffffffffffffffffffffffffffffffffff16815260200190815260200160002060010180549050811015611e9a5782600560008673ffffffffffffffffffffffffffffffffffffffff1673ffffffffffffffffffffffffffffffffffffffff1681526020019081526020016000206001018281548110611e7457611e73613140565b5b906000526020600020015403611e8d5760019150611e9a565b8080600101915050611dd2565b5080611edb576040517f08c379a0000000000000000000000000000000000000000000000000000000008152600401611ed2906136bb565b60405180910390fd5b6000600860008b81526020019081526020016000206000015403611f34576040517f08c379a0000000000000000000000000000000000000000000000000000000008152600401611f2b9061324d565b60405180910390fd5b6000600860008b81526020019081526020016000209050806000015481600101826002015483600301548460040160009054906101000a900460ff16838054611f7c9061332e565b80601f0160208091040260200160405190810160405280929190818152602001828054611fa89061332e565b8015611ff55780601f10611fca57610100808354040283529160200191611ff5565b820191906000526020600020905b815481529060010190602001808311611fd857829003601f168201915b50505050509350985098509850985098505050505091939590929450565b33826000600181111561202957612028612a9a565b5b600560008473ffffffffffffffffffffffffffffffffffffffff1673ffffffffffffffffffffffffffffffffffffffff16815260200190815260200160002060000160149054906101000a900460ff16600181111561208b5761208a612a9a565b5b146120cb576040517f08c379a00000000000000000000000000000000000000000000000000000000081526004016120c290613120565b60405180910390fd5b6000805b600560008573ffffffffffffffffffffffffffffffffffffffff1673ffffffffffffffffffffffffffffffffffffffff168152602001908152602001600020600101805490508110156121975782600560008673ffffffffffffffffffffffffffffffffffffffff1673ffffffffffffffffffffffffffffffffffffffff168152602001908152602001600020600101828154811061217157612170613140565b5b90600052602060002001540361218a5760019150612197565b80806001019150506120cf565b50806121d8576040517f08c379a00000000000000000000000000000000000000000000000000000000081526004016121cf906131e1565b60405180910390fd5b6000600860008781526020019081526020016000206000015414612231576040517f08c379a000000000000000000000000000000000000000000000000000000000815260040161222890613793565b60405180910390fd5b600060086000878152602001908152602001600020905085816000018190555084816001019081612262919061350b565b5060008160040160006101000a81548160ff0219169083600281111561228b5761228a612a9a565b5b021790555042816003018190555060008160020181905550600660008154809291906122b69061308c565b9190505550505050505050565b60606000600560008473ffffffffffffffffffffffffffffffffffffffff1673ffffffffffffffffffffffffffffffffffffffff16815260200190815260200160002090508060010180548060200260200160405190810160405280929190818152602001828054801561235657602002820191906000526020600020905b815481526020019060010190808311612342575b5050505050915050919050565b600860205280600052604060002060009150905080600001549080600101805461238c9061332e565b80601f01602080910402602001604051908101604052809291908181526020018280546123b89061332e565b80156124055780601f106123da57610100808354040283529160200191612405565b820191906000526020600020905b8154815290600101906020018083116123e857829003601f168201915b5050505050908060020154908060030154908060040160009054906101000a900460ff16905085565b6124366124b4565b600073ffffffffffffffffffffffffffffffffffffffff168173ffffffffffffffffffffffffffffffffffffffff16036124a85760006040517f1e4fbdf700000000000000000000000000000000000000000000000000000000815260040161249f9190612c7e565b60405180910390fd5b6124b18161253b565b50565b6124bc6125ff565b73ffffffffffffffffffffffffffffffffffffffff166124da611728565b73ffffffffffffffffffffffffffffffffffffffff1614612539576124fd6125ff565b6040517f118cdaa70000000000000000000000000000000000000000000000000000000081526004016125309190612c7e565b60405180910390fd5b565b60008060009054906101000a900473ffffffffffffffffffffffffffffffffffffffff169050816000806101000a81548173ffffffffffffffffffffffffffffffffffffffff021916908373ffffffffffffffffffffffffffffffffffffffff1602179055508173ffffffffffffffffffffffffffffffffffffffff168173ffffffffffffffffffffffffffffffffffffffff167f8be0079c531659141344cd1fd0a4f28419497f9722a3daafe3b4186f6b6457e060405160405180910390a35050565b600033905090565b828054828255906000526020600020908101928215612643579160200282015b82811115612642578251825591602001919060010190612627565b5b5090506126509190612654565b5090565b5b8082111561266d576000816000905550600101612655565b5090565b6000604051905090565b600080fd5b600080fd5b600073ffffffffffffffffffffffffffffffffffffffff82169050919050565b60006126b082612685565b9050919050565b6126c0816126a5565b81146126cb57600080fd5b50565b6000813590506126dd816126b7565b92915050565b6000819050919050565b6126f6816126e3565b811461270157600080fd5b50565b600081359050612713816126ed565b92915050565b600080604083850312156127305761272f61267b565b5b600061273e858286016126ce565b925050602061274f85828601612704565b9150509250929050565b600080fd5b600080fd5b6000601f19601f8301169050919050565b7f4e487b7100000000000000000000000000000000000000000000000000000000600052604160045260246000fd5b6127ac82612763565b810181811067ffffffffffffffff821117156127cb576127ca612774565b5b80604052505050565b60006127de612671565b90506127ea82826127a3565b919050565b600067ffffffffffffffff82111561280a57612809612774565b5b61281382612763565b9050602081019050919050565b82818337600083830152505050565b600061284261283d846127ef565b6127d4565b90508281526020810184848401111561285e5761285d61275e565b5b612869848285612820565b509392505050565b600082601f83011261288657612885612759565b5b813561289684826020860161282f565b91505092915050565b6000806000606084860312156128b8576128b761267b565b5b60006128c686828701612704565b935050602084013567ffffffffffffffff8111156128e7576128e6612680565b5b6128f386828701612871565b925050604084013567ffffffffffffffff81111561291457612913612680565b5b61292086828701612871565b9150509250925092565b6000602082840312156129405761293f61267b565b5b600061294e848285016126ce565b91505092915050565b60006020828403121561296d5761296c61267b565b5b600061297b84828501612704565b91505092915050565b600081519050919050565b600082825260208201905092915050565b60005b838110156129be5780820151818401526020810190506129a3565b60008484015250505050565b60006129d582612984565b6129df818561298f565b93506129ef8185602086016129a0565b6129f881612763565b840191505092915050565b60006040820190508181036000830152612a1d81856129ca565b90508181036020830152612a3181846129ca565b90509392505050565b612a43816126e3565b82525050565b6000602082019050612a5e6000830184612a3a565b92915050565b60008115159050919050565b612a7981612a64565b82525050565b6000602082019050612a946000830184612a70565b92915050565b7f4e487b7100000000000000000000000000000000000000000000000000000000600052602160045260246000fd5b60028110612ada57612ad9612a9a565b5b50565b6000819050612aeb82612ac9565b919050565b6000612afb82612add565b9050919050565b612b0b81612af0565b82525050565b6000602082019050612b266000830184612b02565b92915050565b600081519050919050565b600082825260208201905092915050565b6000819050602082019050919050565b600082825260208201905092915050565b6000612b7482612984565b612b7e8185612b58565b9350612b8e8185602086016129a0565b612b9781612763565b840191505092915050565b6000612bae8383612b69565b905092915050565b6000602082019050919050565b6000612bce82612b2c565b612bd88185612b37565b935083602082028501612bea85612b48565b8060005b85811015612c265784840389528151612c078582612ba2565b9450612c1283612bb6565b925060208a01995050600181019050612bee565b50829750879550505050505092915050565b60006040820190508181036000830152612c528185612bc3565b90508181036020830152612c668184612bc3565b90509392505050565b612c78816126a5565b82525050565b6000602082019050612c936000830184612c6f565b92915050565b60028110612ca657600080fd5b50565b600081359050612cb881612c99565b92915050565b60008060408385031215612cd557612cd461267b565b5b6000612ce3858286016126ce565b9250506020612cf485828601612ca9565b9150509250929050565b60028110612d0f57612d0e612a9a565b5b50565b6000819050612d2082612cfe565b919050565b6000612d3082612d12565b9050919050565b612d4081612d25565b82525050565b600060c082019050612d5b6000830189612c6f565b612d686020830188612b02565b612d756040830187612d37565b612d826060830186612a70565b612d8f6080830185612a3a565b612d9c60a0830184612a3a565b979650505050505050565b60038110612db857612db7612a9a565b5b50565b6000819050612dc982612da7565b919050565b6000612dd982612dbb565b9050919050565b612de981612dce565b82525050565b600060a082019050612e046000830188612a3a565b8181036020830152612e1681876129ca565b9050612e256040830186612a3a565b612e326060830185612a3a565b612e3f6080830184612de0565b9695505050505050565b60008060408385031215612e6057612e5f61267b565b5b6000612e6e85828601612704565b925050602083013567ffffffffffffffff811115612e8f57612e8e612680565b5b612e9b85828601612871565b9150509250929050565b600081519050919050565b600082825260208201905092915050565b6000819050602082019050919050565b612eda816126e3565b82525050565b6000612eec8383612ed1565b60208301905092915050565b6000602082019050919050565b6000612f1082612ea5565b612f1a8185612eb0565b9350612f2583612ec1565b8060005b83811015612f56578151612f3d8882612ee0565b9750612f4883612ef8565b925050600181019050612f29565b5085935050505092915050565b60006020820190508181036000830152612f7d8184612f05565b905092915050565b7f55736572206973204e6f74205265676973746572656400000000000000000000600082015250565b6000612fbb60168361298f565b9150612fc682612f85565b602082019050919050565b60006020820190508181036000830152612fea81612fae565b9050919050565b7f55736572206973204e6f74204163746976650000000000000000000000000000600082015250565b600061302760128361298f565b915061303282612ff1565b602082019050919050565b600060208201905081810360008301526130568161301a565b9050919050565b7f4e487b7100000000000000000000000000000000000000000000000000000000600052601160045260246000fd5b6000613097826126e3565b91507fffffffffffffffffffffffffffffffffffffffffffffffffffffffffffffffff82036130c9576130c861305d565b5b600182019050919050565b7f55736572206973206e6f7420616e2061756469746f7200000000000000000000600082015250565b600061310a60168361298f565b9150613115826130d4565b602082019050919050565b60006020820190508181036000830152613139816130fd565b9050919050565b7f4e487b7100000000000000000000000000000000000000000000000000000000600052603260045260246000fd5b7f55736572206973206e6f742061737369676e656420746f20746869732063617360008201527f6500000000000000000000000000000000000000000000000000000000000000602082015250565b60006131cb60218361298f565b91506131d68261316f565b604082019050919050565b600060208201905081810360008301526131fa816131be565b9050919050565b7f4361736520646f6573206e6f7420657869737400000000000000000000000000600082015250565b600061323760138361298f565b915061324282613201565b602082019050919050565b600060208201905081810360008301526132668161322a565b9050919050565b7f43617365206973206e6f74206f70656e20666f722065766964656e636520737560008201527f626d697373696f6e000000000000000000000000000000000000000000000000602082015250565b60006132c960288361298f565b91506132d48261326d565b604082019050919050565b600060208201905081810360008301526132f8816132bc565b9050919050565b7f4e487b7100000000000000000000000000000000000000000000000000000000600052602260045260246000fd5b6000600282049050600182168061334657607f821691505b602082108103613359576133586132ff565b5b50919050565b60008190508160005260206000209050919050565b60006020601f8301049050919050565b600082821b905092915050565b6000600883026133c17fffffffffffffffffffffffffffffffffffffffffffffffffffffffffffffffff82613384565b6133cb8683613384565b95508019841693508086168417925050509392505050565b6000819050919050565b60006134086134036133fe846126e3565b6133e3565b6126e3565b9050919050565b6000819050919050565b613422836133ed565b61343661342e8261340f565b848454613391565b825550505050565b600090565b61344b61343e565b613456818484613419565b505050565b5b8181101561347a5761346f600082613443565b60018101905061345c565b5050565b601f8211156134bf576134908161335f565b61349984613374565b810160208510156134a8578190505b6134bc6134b485613374565b83018261345b565b50505b505050565b600082821c905092915050565b60006134e2600019846008026134c4565b1980831691505092915050565b60006134fb83836134d1565b9150826002028217905092915050565b61351482612984565b67ffffffffffffffff81111561352d5761352c612774565b5b613537825461332e565b61354282828561347e565b600060209050601f8311600181146135755760008415613563578287015190505b61356d85826134ef565b8655506135d5565b601f1984166135838661335f565b60005b828110156135ab57848901518255600182019150602085019450602081019050613586565b868310156135c857848901516135c4601f8916826134d1565b8355505b6001600288020188555050505b505050505050565b7f5573657220416464726573732063616e7420626520656d707479000000000000600082015250565b6000613613601a8361298f565b915061361e826135dd565b602082019050919050565b6000602082019050818103600083015261364281613606565b9050919050565b7f41756469746f72206973206e6f742061737369676e656420746f20746869732060008201527f6361736500000000000000000000000000000000000000000000000000000000602082015250565b60006136a560248361298f565b91506136b082613649565b604082019050919050565b600060208201905081810360008301526136d481613698565b9050919050565b7f557365722069732020416c726561647920526567697374657265640000000000600082015250565b6000613711601b8361298f565b915061371c826136db565b602082019050919050565b6000602082019050818103600083015261374081613704565b9050919050565b7f4361736520616c72656164792065786973747300000000000000000000000000600082015250565b600061377d60138361298f565b915061378882613747565b602082019050919050565b600060208201905081810360008301526137ac81613770565b905091905056fea26469706673582212202adb6edba28fb7aae59bac3f35cb39903dbac9fe39012c51c0d678db72f3635764736f6c634300081c0033",
  "linkReferences": {},
  "deployedLinkReferences": {}
}